{
	"data": {
		"bytecode": {
			"linkReferences": {
				"@zk-kit/incremental-merkle-tree.sol/IncrementalBinaryTree.sol": {
					"IncrementalBinaryTree": [
						{
							"length": 20,
							"start": 2486
						},
						{
							"length": 20,
							"start": 2776
						},
						{
							"length": 20,
							"start": 3122
						},
						{
							"length": 20,
							"start": 3337
						}
					]
				}
			},
			"object": "608060405234801561001057600080fd5b506040516113e33803806113e383398101604081905261002f91610054565b600180546001600160a01b0319166001600160a01b0392909216919091179055610082565b600060208284031215610065578081fd5b81516001600160a01b038116811461007b578182fd5b9392505050565b611352806100916000396000f3fe608060405234801561001057600080fd5b50600436106100ea5760003560e01c80636389e1071161008c5780639c112141116100665780639c11214114610236578063dabc4d5114610249578063ec45622a1461026c578063fcf0b6ec1461027f57600080fd5b80636389e107146101b157806365e54f83146101d157806396324bd4146101e457600080fd5b80633bc778e3116100c85780633bc778e31461014757806343989f851461015a578063568ee8261461016d578063638480be1461018057600080fd5b806304245371146100ef5780631783efc3146101045780632b7ac3f314610117575b600080fd5b6101026100fd366004610f00565b610292565b005b610102610112366004610f4a565b61033b565b60015461012a906001600160a01b031681565b6040516001600160a01b0390911681526020015b60405180910390f35b6101026101553660046110e5565b6103a9565b610102610168366004610fdb565b610578565b61010261017b366004610ed5565b6105ee565b6101a361018e366004610ea5565b60009081526020819052604090206002015490565b60405190815260200161013e565b6101a36101bf366004610ea5565b60009081526020819052604090205490565b6101026101df366004610f9f565b610682565b6102176101f2366004610ea5565b600260205260009081526040902080546001909101546001600160a01b039091169082565b604080516001600160a01b03909316835260208301919091520161013e565b610102610244366004610f6b565b61071f565b6101a3610257366004610ea5565b60009081526020819052604090206001015490565b61010261027a36600461105b565b6107bf565b61010261028d366004610f4a565b610838565b60008381526002602052604090205483906001600160a01b031633146102cb576040516317737e4f60e31b815260040160405180910390fd5b60005b8281101561030e57610306858585848181106102fa57634e487b7160e01b600052603260045260246000fd5b905060200201356108cc565b6001016102ce565b50505060009182525060208181526040808320600101546002808452828520918552019091529020429055565b60008281526002602052604090205482906001600160a01b03163314610374576040516317737e4f60e31b815260040160405180910390fd5b61037e83836108cc565b5050600090815260208181526040808320600101546002808452828520918552019091529020429055565b600086815260208190526040902054806103d65760405163029f057960e01b815260040160405180910390fd5b6000878152602081905260409020600101548681146104625760008881526002602081815260408084208b8552808401835290842054938c90529190526001015481610435576040516326994ac360e11b815260040160405180910390fd5b61043f8183611295565b42111561045f576040516309581a9960e41b815260040160405180910390fd5b50505b600088815260026020908152604080832088845260030190915290205460ff16156104a057604051632523419d60e21b815260040160405180910390fd5b600154604051634d65479560e11b81526001600160a01b0390911690639aca8f2a906104da908a9089908b908a908a908a9060040161125a565b60006040518083038186803b1580156104f257600080fd5b505afa158015610506573d6000803e3d6000fd5b5050506000898152600260209081526040808320898452600301825291829020805460ff19166001179055815188815290810189905286925089918b917f48950129900df26c2140187532df49c8af343c3daf74f1e99e562e1b2be07adc910160405180910390a45050505050505050565b60008681526002602052604090205486906001600160a01b031633146105b1576040516317737e4f60e31b815260040160405180910390fd5b6105bf8787878787876109fd565b505050600093845250505060208181526040808320600101546002808452828520918552019091529020429055565b60008281526002602052604090205482906001600160a01b03163314610627576040516317737e4f60e31b815260040160405180910390fd5b60008381526002602052604080822080546001600160a01b0319166001600160a01b03861690811790915590519091339186917f0ba83579a0e79193ef649b9f5a8759d35af086ba62a3e207b52e4a8ae30d49e391a4505050565b8260108110806106925750602081115b156106b05760405163767b278960e11b815260040160405180910390fd5b6106ba8585610b15565b60008581526002602052604080822080546001600160a01b0319166001600160a01b03871690811782556001909101859055905190919087907f0ba83579a0e79193ef649b9f5a8759d35af086ba62a3e207b52e4a8ae30d49e3908390a45050505050565b81601081108061072f5750602081115b1561074d5760405163767b278960e11b815260040160405180910390fd5b6107578484610b15565b60008481526002602052604080822080546001600160a01b0319166001600160a01b0386169081178255610e10600190920191909155905190919086907f0ba83579a0e79193ef649b9f5a8759d35af086ba62a3e207b52e4a8ae30d49e3908390a450505050565b60008781526002602052604090205487906001600160a01b031633146107f8576040516317737e4f60e31b815260040160405180910390fd5b61080788888888888888610c2e565b5050506000948552505050602082815260408084206001015460028084528286209186520190915290912042905550565b60008281526002602052604090205482906001600160a01b03163314610871576040516317737e4f60e31b815260040160405180910390fd5b60008381526002602090815260409182902060010180549085905582518181529182018590529185917f264b2a8f6763c084235fe832ba903482b2ef1a521336881fc75b987c2dfd29c591015b60405180910390a250505050565b6000828152602081905260409020546108f85760405163029f057960e01b815260040160405180910390fd5b600082815260208190526040908190209051630b4381fd60e11b815260048101919091526024810182905273__$0c6eb7207c37accf1552a1c47686411ac0$__9063168703fa9060440160206040518083038186803b15801561095a57600080fd5b505af415801561096e573d6000803e3d6000fd5b505050506040513d601f19601f820116820180604052508101906109929190610ebd565b5060008281526020819052604081206001808201546002909201549192916109ba91906112cc565b604080518281526020810186905290810184905290915084907f19239b3f93cd10558aaf11423af70c77763bf54f52bcc75bfa74d4d13548cde9906060016108be565b600086815260208190526040902054610a295760405163029f057960e01b815260040160405180910390fd5b600086815260208190526040908190209051630629596f60e01b815273__$0c6eb7207c37accf1552a1c47686411ac0$__91630629596f91610a789190899089908990899089906004016111d3565b60006040518083038186803b158015610a9057600080fd5b505af4158015610aa4573d6000803e3d6000fd5b5050506000878152602081905260408120600101549150610ac58484610d50565b60408051828152602081018a905290810184905290915088907f3108849c053c77b8073a11256dffb5ffd5b55e93e105a355e1c9061db890d8719060600160405180910390a25050505050505050565b60008281526020819052604090205415610b4257604051638121725b60e01b815260040160405180910390fd5b6000600883604051602001610b5991815260200190565b60408051808303601f1901815282825280516020918201206000888152918290529190206304257eed60e21b835260048301526024820185905290911c60448201819052915073__$0c6eb7207c37accf1552a1c47686411ac0$__90631095fbb49060640160006040518083038186803b158015610bd657600080fd5b505af4158015610bea573d6000803e3d6000fd5b505060408051858152602081018590528693507f0d000126c26c1bbe400fd2332187f75d58b69306f9ec47b408686189d3a0083392500160405180910390a2505050565b600087815260208190526040902054610c5a5760405163029f057960e01b815260040160405180910390fd5b60008781526020819052604090819020905163a547882760e01b815273__$0c6eb7207c37accf1552a1c47686411ac0$__9163a547882791610cab91908a908a908a908a908a908a90600401611213565b60006040518083038186803b158015610cc357600080fd5b505af4158015610cd7573d6000803e3d6000fd5b5050506000888152602081905260408120600101549150610cf88484610d50565b60408051828152602081018b90529081018990526060810184905290915089907fea3588e4a2a0c93d6a0e69dfeaf7496f43ccccf02ad9ce0a5b7627cbca4b61b19060800160405180910390a2505050505050505050565b600080825b60ff811615610e26576000821180610db057508484610d756001846112e3565b60ff16818110610d9557634e487b7160e01b600052603260045260246000fd5b9050602002016020810190610daa919061113e565b60ff1615155b15610e1d57610dc06002836112ad565b91508484610dcf6001846112e3565b60ff16818110610def57634e487b7160e01b600052603260045260246000fd5b9050602002016020810190610e04919061113e565b60ff1660011415610e1d57610e1a600183611295565b91505b60001901610d55565b509392505050565b80356001600160a01b0381168114610e4557600080fd5b919050565b60008083601f840112610e5b578182fd5b50813567ffffffffffffffff811115610e72578182fd5b6020830191508360208260051b8501011115610e8d57600080fd5b9250929050565b803560ff81168114610e4557600080fd5b600060208284031215610eb6578081fd5b5035919050565b600060208284031215610ece578081fd5b5051919050565b60008060408385031215610ee7578081fd5b82359150610ef760208401610e2e565b90509250929050565b600080600060408486031215610f14578081fd5b83359250602084013567ffffffffffffffff811115610f31578182fd5b610f3d86828701610e4a565b9497909650939450505050565b60008060408385031215610f5c578182fd5b50508035926020909101359150565b600080600060608486031215610f7f578283fd5b8335925060208401359150610f9660408501610e2e565b90509250925092565b60008060008060808587031215610fb4578081fd5b8435935060208501359250610fcb60408601610e2e565b9396929550929360600135925050565b60008060008060008060808789031215610ff3578182fd5b8635955060208701359450604087013567ffffffffffffffff80821115611018578384fd5b6110248a838b01610e4a565b9096509450606089013591508082111561103c578384fd5b5061104989828a01610e4a565b979a9699509497509295939492505050565b600080600080600080600060a0888a031215611075578081fd5b873596506020880135955060408801359450606088013567ffffffffffffffff808211156110a1578283fd5b6110ad8b838c01610e4a565b909650945060808a01359150808211156110c5578283fd5b506110d28a828b01610e4a565b989b979a50959850939692959293505050565b6000806000806000806101a080888a0312156110ff578283fd5b873596506020880135955060408801359450606088013593506080880135925088818901111561112d578182fd5b5060a0870190509295509295509295565b60006020828403121561114f578081fd5b61115882610e94565b9392505050565b81835260006001600160fb1b03831115611177578081fd5b8260051b80836020870137939093016020019283525090919050565b81835260006020808501945082825b858110156111c85760ff6111b583610e94565b16875295820195908201906001016111a2565b509495945050505050565b8681528560208201526080604082015260006111f360808301868861115f565b8281036060840152611206818587611193565b9998505050505050505050565b87815286602082015285604082015260a06060820152600061123960a08301868861115f565b828103608084015261124c818587611193565b9a9950505050505050505050565b60006101a082019050878252866020830152856040830152846060830152610100846080840137610180919091019190915295945050505050565b600082198211156112a8576112a8611306565b500190565b60008160001904831182151516156112c7576112c7611306565b500290565b6000828210156112de576112de611306565b500390565b600060ff821660ff8416808210156112fd576112fd611306565b90039392505050565b634e487b7160e01b600052601160045260246000fdfea26469706673582212202819e7261eee82b405367a854e7744448f6c468bda60fe197645554e5327261c64736f6c63430008040033",
			"opcodes": "PUSH1 0x80 PUSH1 0x40 MSTORE CALLVALUE DUP1 ISZERO PUSH2 0x10 JUMPI PUSH1 0x0 DUP1 REVERT JUMPDEST POP PUSH1 0x40 MLOAD PUSH2 0x13E3 CODESIZE SUB DUP1 PUSH2 0x13E3 DUP4 CODECOPY DUP2 ADD PUSH1 0x40 DUP2 SWAP1 MSTORE PUSH2 0x2F SWAP2 PUSH2 0x54 JUMP JUMPDEST PUSH1 0x1 DUP1 SLOAD PUSH1 0x1 PUSH1 0x1 PUSH1 0xA0 SHL SUB NOT AND PUSH1 0x1 PUSH1 0x1 PUSH1 0xA0 SHL SUB SWAP3 SWAP1 SWAP3 AND SWAP2 SWAP1 SWAP2 OR SWAP1 SSTORE PUSH2 0x82 JUMP JUMPDEST PUSH1 0x0 PUSH1 0x20 DUP3 DUP5 SUB SLT ISZERO PUSH2 0x65 JUMPI DUP1 DUP2 REVERT JUMPDEST DUP2 MLOAD PUSH1 0x1 PUSH1 0x1 PUSH1 0xA0 SHL SUB DUP2 AND DUP2 EQ PUSH2 0x7B JUMPI DUP2 DUP3 REVERT JUMPDEST SWAP4 SWAP3 POP POP POP JUMP JUMPDEST PUSH2 0x1352 DUP1 PUSH2 0x91 PUSH1 0x0 CODECOPY PUSH1 0x0 RETURN INVALID PUSH1 0x80 PUSH1 0x40 MSTORE CALLVALUE DUP1 ISZERO PUSH2 0x10 JUMPI PUSH1 0x0 DUP1 REVERT JUMPDEST POP PUSH1 0x4 CALLDATASIZE LT PUSH2 0xEA JUMPI PUSH1 0x0 CALLDATALOAD PUSH1 0xE0 SHR DUP1 PUSH4 0x6389E107 GT PUSH2 0x8C JUMPI DUP1 PUSH4 0x9C112141 GT PUSH2 0x66 JUMPI DUP1 PUSH4 0x9C112141 EQ PUSH2 0x236 JUMPI DUP1 PUSH4 0xDABC4D51 EQ PUSH2 0x249 JUMPI DUP1 PUSH4 0xEC45622A EQ PUSH2 0x26C JUMPI DUP1 PUSH4 0xFCF0B6EC EQ PUSH2 0x27F JUMPI PUSH1 0x0 DUP1 REVERT JUMPDEST DUP1 PUSH4 0x6389E107 EQ PUSH2 0x1B1 JUMPI DUP1 PUSH4 0x65E54F83 EQ PUSH2 0x1D1 JUMPI DUP1 PUSH4 0x96324BD4 EQ PUSH2 0x1E4 JUMPI PUSH1 0x0 DUP1 REVERT JUMPDEST DUP1 PUSH4 0x3BC778E3 GT PUSH2 0xC8 JUMPI DUP1 PUSH4 0x3BC778E3 EQ PUSH2 0x147 JUMPI DUP1 PUSH4 0x43989F85 EQ PUSH2 0x15A JUMPI DUP1 PUSH4 0x568EE826 EQ PUSH2 0x16D JUMPI DUP1 PUSH4 0x638480BE EQ PUSH2 0x180 JUMPI PUSH1 0x0 DUP1 REVERT JUMPDEST DUP1 PUSH4 0x4245371 EQ PUSH2 0xEF JUMPI DUP1 PUSH4 0x1783EFC3 EQ PUSH2 0x104 JUMPI DUP1 PUSH4 0x2B7AC3F3 EQ PUSH2 0x117 JUMPI JUMPDEST PUSH1 0x0 DUP1 REVERT JUMPDEST PUSH2 0x102 PUSH2 0xFD CALLDATASIZE PUSH1 0x4 PUSH2 0xF00 JUMP JUMPDEST PUSH2 0x292 JUMP JUMPDEST STOP JUMPDEST PUSH2 0x102 PUSH2 0x112 CALLDATASIZE PUSH1 0x4 PUSH2 0xF4A JUMP JUMPDEST PUSH2 0x33B JUMP JUMPDEST PUSH1 0x1 SLOAD PUSH2 0x12A SWAP1 PUSH1 0x1 PUSH1 0x1 PUSH1 0xA0 SHL SUB AND DUP2 JUMP JUMPDEST PUSH1 0x40 MLOAD PUSH1 0x1 PUSH1 0x1 PUSH1 0xA0 SHL SUB SWAP1 SWAP2 AND DUP2 MSTORE PUSH1 0x20 ADD JUMPDEST PUSH1 0x40 MLOAD DUP1 SWAP2 SUB SWAP1 RETURN JUMPDEST PUSH2 0x102 PUSH2 0x155 CALLDATASIZE PUSH1 0x4 PUSH2 0x10E5 JUMP JUMPDEST PUSH2 0x3A9 JUMP JUMPDEST PUSH2 0x102 PUSH2 0x168 CALLDATASIZE PUSH1 0x4 PUSH2 0xFDB JUMP JUMPDEST PUSH2 0x578 JUMP JUMPDEST PUSH2 0x102 PUSH2 0x17B CALLDATASIZE PUSH1 0x4 PUSH2 0xED5 JUMP JUMPDEST PUSH2 0x5EE JUMP JUMPDEST PUSH2 0x1A3 PUSH2 0x18E CALLDATASIZE PUSH1 0x4 PUSH2 0xEA5 JUMP JUMPDEST PUSH1 0x0 SWAP1 DUP2 MSTORE PUSH1 0x20 DUP2 SWAP1 MSTORE PUSH1 0x40 SWAP1 KECCAK256 PUSH1 0x2 ADD SLOAD SWAP1 JUMP JUMPDEST PUSH1 0x40 MLOAD SWAP1 DUP2 MSTORE PUSH1 0x20 ADD PUSH2 0x13E JUMP JUMPDEST PUSH2 0x1A3 PUSH2 0x1BF CALLDATASIZE PUSH1 0x4 PUSH2 0xEA5 JUMP JUMPDEST PUSH1 0x0 SWAP1 DUP2 MSTORE PUSH1 0x20 DUP2 SWAP1 MSTORE PUSH1 0x40 SWAP1 KECCAK256 SLOAD SWAP1 JUMP JUMPDEST PUSH2 0x102 PUSH2 0x1DF CALLDATASIZE PUSH1 0x4 PUSH2 0xF9F JUMP JUMPDEST PUSH2 0x682 JUMP JUMPDEST PUSH2 0x217 PUSH2 0x1F2 CALLDATASIZE PUSH1 0x4 PUSH2 0xEA5 JUMP JUMPDEST PUSH1 0x2 PUSH1 0x20 MSTORE PUSH1 0x0 SWAP1 DUP2 MSTORE PUSH1 0x40 SWAP1 KECCAK256 DUP1 SLOAD PUSH1 0x1 SWAP1 SWAP2 ADD SLOAD PUSH1 0x1 PUSH1 0x1 PUSH1 0xA0 SHL SUB SWAP1 SWAP2 AND SWAP1 DUP3 JUMP JUMPDEST PUSH1 0x40 DUP1 MLOAD PUSH1 0x1 PUSH1 0x1 PUSH1 0xA0 SHL SUB SWAP1 SWAP4 AND DUP4 MSTORE PUSH1 0x20 DUP4 ADD SWAP2 SWAP1 SWAP2 MSTORE ADD PUSH2 0x13E JUMP JUMPDEST PUSH2 0x102 PUSH2 0x244 CALLDATASIZE PUSH1 0x4 PUSH2 0xF6B JUMP JUMPDEST PUSH2 0x71F JUMP JUMPDEST PUSH2 0x1A3 PUSH2 0x257 CALLDATASIZE PUSH1 0x4 PUSH2 0xEA5 JUMP JUMPDEST PUSH1 0x0 SWAP1 DUP2 MSTORE PUSH1 0x20 DUP2 SWAP1 MSTORE PUSH1 0x40 SWAP1 KECCAK256 PUSH1 0x1 ADD SLOAD SWAP1 JUMP JUMPDEST PUSH2 0x102 PUSH2 0x27A CALLDATASIZE PUSH1 0x4 PUSH2 0x105B JUMP JUMPDEST PUSH2 0x7BF JUMP JUMPDEST PUSH2 0x102 PUSH2 0x28D CALLDATASIZE PUSH1 0x4 PUSH2 0xF4A JUMP JUMPDEST PUSH2 0x838 JUMP JUMPDEST PUSH1 0x0 DUP4 DUP2 MSTORE PUSH1 0x2 PUSH1 0x20 MSTORE PUSH1 0x40 SWAP1 KECCAK256 SLOAD DUP4 SWAP1 PUSH1 0x1 PUSH1 0x1 PUSH1 0xA0 SHL SUB AND CALLER EQ PUSH2 0x2CB JUMPI PUSH1 0x40 MLOAD PUSH4 0x17737E4F PUSH1 0xE3 SHL DUP2 MSTORE PUSH1 0x4 ADD PUSH1 0x40 MLOAD DUP1 SWAP2 SUB SWAP1 REVERT JUMPDEST PUSH1 0x0 JUMPDEST DUP3 DUP2 LT ISZERO PUSH2 0x30E JUMPI PUSH2 0x306 DUP6 DUP6 DUP6 DUP5 DUP2 DUP2 LT PUSH2 0x2FA JUMPI PUSH4 0x4E487B71 PUSH1 0xE0 SHL PUSH1 0x0 MSTORE PUSH1 0x32 PUSH1 0x4 MSTORE PUSH1 0x24 PUSH1 0x0 REVERT JUMPDEST SWAP1 POP PUSH1 0x20 MUL ADD CALLDATALOAD PUSH2 0x8CC JUMP JUMPDEST PUSH1 0x1 ADD PUSH2 0x2CE JUMP JUMPDEST POP POP POP PUSH1 0x0 SWAP2 DUP3 MSTORE POP PUSH1 0x20 DUP2 DUP2 MSTORE PUSH1 0x40 DUP1 DUP4 KECCAK256 PUSH1 0x1 ADD SLOAD PUSH1 0x2 DUP1 DUP5 MSTORE DUP3 DUP6 KECCAK256 SWAP2 DUP6 MSTORE ADD SWAP1 SWAP2 MSTORE SWAP1 KECCAK256 TIMESTAMP SWAP1 SSTORE JUMP JUMPDEST PUSH1 0x0 DUP3 DUP2 MSTORE PUSH1 0x2 PUSH1 0x20 MSTORE PUSH1 0x40 SWAP1 KECCAK256 SLOAD DUP3 SWAP1 PUSH1 0x1 PUSH1 0x1 PUSH1 0xA0 SHL SUB AND CALLER EQ PUSH2 0x374 JUMPI PUSH1 0x40 MLOAD PUSH4 0x17737E4F PUSH1 0xE3 SHL DUP2 MSTORE PUSH1 0x4 ADD PUSH1 0x40 MLOAD DUP1 SWAP2 SUB SWAP1 REVERT JUMPDEST PUSH2 0x37E DUP4 DUP4 PUSH2 0x8CC JUMP JUMPDEST POP POP PUSH1 0x0 SWAP1 DUP2 MSTORE PUSH1 0x20 DUP2 DUP2 MSTORE PUSH1 0x40 DUP1 DUP4 KECCAK256 PUSH1 0x1 ADD SLOAD PUSH1 0x2 DUP1 DUP5 MSTORE DUP3 DUP6 KECCAK256 SWAP2 DUP6 MSTORE ADD SWAP1 SWAP2 MSTORE SWAP1 KECCAK256 TIMESTAMP SWAP1 SSTORE JUMP JUMPDEST PUSH1 0x0 DUP7 DUP2 MSTORE PUSH1 0x20 DUP2 SWAP1 MSTORE PUSH1 0x40 SWAP1 KECCAK256 SLOAD DUP1 PUSH2 0x3D6 JUMPI PUSH1 0x40 MLOAD PUSH4 0x29F0579 PUSH1 0xE0 SHL DUP2 MSTORE PUSH1 0x4 ADD PUSH1 0x40 MLOAD DUP1 SWAP2 SUB SWAP1 REVERT JUMPDEST PUSH1 0x0 DUP8 DUP2 MSTORE PUSH1 0x20 DUP2 SWAP1 MSTORE PUSH1 0x40 SWAP1 KECCAK256 PUSH1 0x1 ADD SLOAD DUP7 DUP2 EQ PUSH2 0x462 JUMPI PUSH1 0x0 DUP9 DUP2 MSTORE PUSH1 0x2 PUSH1 0x20 DUP2 DUP2 MSTORE PUSH1 0x40 DUP1 DUP5 KECCAK256 DUP12 DUP6 MSTORE DUP1 DUP5 ADD DUP4 MSTORE SWAP1 DUP5 KECCAK256 SLOAD SWAP4 DUP13 SWAP1 MSTORE SWAP2 SWAP1 MSTORE PUSH1 0x1 ADD SLOAD DUP2 PUSH2 0x435 JUMPI PUSH1 0x40 MLOAD PUSH4 0x26994AC3 PUSH1 0xE1 SHL DUP2 MSTORE PUSH1 0x4 ADD PUSH1 0x40 MLOAD DUP1 SWAP2 SUB SWAP1 REVERT JUMPDEST PUSH2 0x43F DUP2 DUP4 PUSH2 0x1295 JUMP JUMPDEST TIMESTAMP GT ISZERO PUSH2 0x45F JUMPI PUSH1 0x40 MLOAD PUSH4 0x9581A99 PUSH1 0xE4 SHL DUP2 MSTORE PUSH1 0x4 ADD PUSH1 0x40 MLOAD DUP1 SWAP2 SUB SWAP1 REVERT JUMPDEST POP POP JUMPDEST PUSH1 0x0 DUP9 DUP2 MSTORE PUSH1 0x2 PUSH1 0x20 SWAP1 DUP2 MSTORE PUSH1 0x40 DUP1 DUP4 KECCAK256 DUP9 DUP5 MSTORE PUSH1 0x3 ADD SWAP1 SWAP2 MSTORE SWAP1 KECCAK256 SLOAD PUSH1 0xFF AND ISZERO PUSH2 0x4A0 JUMPI PUSH1 0x40 MLOAD PUSH4 0x2523419D PUSH1 0xE2 SHL DUP2 MSTORE PUSH1 0x4 ADD PUSH1 0x40 MLOAD DUP1 SWAP2 SUB SWAP1 REVERT JUMPDEST PUSH1 0x1 SLOAD PUSH1 0x40 MLOAD PUSH4 0x4D654795 PUSH1 0xE1 SHL DUP2 MSTORE PUSH1 0x1 PUSH1 0x1 PUSH1 0xA0 SHL SUB SWAP1 SWAP2 AND SWAP1 PUSH4 0x9ACA8F2A SWAP1 PUSH2 0x4DA SWAP1 DUP11 SWAP1 DUP10 SWAP1 DUP12 SWAP1 DUP11 SWAP1 DUP11 SWAP1 DUP11 SWAP1 PUSH1 0x4 ADD PUSH2 0x125A JUMP JUMPDEST PUSH1 0x0 PUSH1 0x40 MLOAD DUP1 DUP4 SUB DUP2 DUP7 DUP1 EXTCODESIZE ISZERO DUP1 ISZERO PUSH2 0x4F2 JUMPI PUSH1 0x0 DUP1 REVERT JUMPDEST POP GAS STATICCALL ISZERO DUP1 ISZERO PUSH2 0x506 JUMPI RETURNDATASIZE PUSH1 0x0 DUP1 RETURNDATACOPY RETURNDATASIZE PUSH1 0x0 REVERT JUMPDEST POP POP POP PUSH1 0x0 DUP10 DUP2 MSTORE PUSH1 0x2 PUSH1 0x20 SWAP1 DUP2 MSTORE PUSH1 0x40 DUP1 DUP4 KECCAK256 DUP10 DUP5 MSTORE PUSH1 0x3 ADD DUP3 MSTORE SWAP2 DUP3 SWAP1 KECCAK256 DUP1 SLOAD PUSH1 0xFF NOT AND PUSH1 0x1 OR SWAP1 SSTORE DUP2 MLOAD DUP9 DUP2 MSTORE SWAP1 DUP2 ADD DUP10 SWAP1 MSTORE DUP7 SWAP3 POP DUP10 SWAP2 DUP12 SWAP2 PUSH32 0x48950129900DF26C2140187532DF49C8AF343C3DAF74F1E99E562E1B2BE07ADC SWAP2 ADD PUSH1 0x40 MLOAD DUP1 SWAP2 SUB SWAP1 LOG4 POP POP POP POP POP POP POP POP JUMP JUMPDEST PUSH1 0x0 DUP7 DUP2 MSTORE PUSH1 0x2 PUSH1 0x20 MSTORE PUSH1 0x40 SWAP1 KECCAK256 SLOAD DUP7 SWAP1 PUSH1 0x1 PUSH1 0x1 PUSH1 0xA0 SHL SUB AND CALLER EQ PUSH2 0x5B1 JUMPI PUSH1 0x40 MLOAD PUSH4 0x17737E4F PUSH1 0xE3 SHL DUP2 MSTORE PUSH1 0x4 ADD PUSH1 0x40 MLOAD DUP1 SWAP2 SUB SWAP1 REVERT JUMPDEST PUSH2 0x5BF DUP8 DUP8 DUP8 DUP8 DUP8 DUP8 PUSH2 0x9FD JUMP JUMPDEST POP POP POP PUSH1 0x0 SWAP4 DUP5 MSTORE POP POP POP PUSH1 0x20 DUP2 DUP2 MSTORE PUSH1 0x40 DUP1 DUP4 KECCAK256 PUSH1 0x1 ADD SLOAD PUSH1 0x2 DUP1 DUP5 MSTORE DUP3 DUP6 KECCAK256 SWAP2 DUP6 MSTORE ADD SWAP1 SWAP2 MSTORE SWAP1 KECCAK256 TIMESTAMP SWAP1 SSTORE JUMP JUMPDEST PUSH1 0x0 DUP3 DUP2 MSTORE PUSH1 0x2 PUSH1 0x20 MSTORE PUSH1 0x40 SWAP1 KECCAK256 SLOAD DUP3 SWAP1 PUSH1 0x1 PUSH1 0x1 PUSH1 0xA0 SHL SUB AND CALLER EQ PUSH2 0x627 JUMPI PUSH1 0x40 MLOAD PUSH4 0x17737E4F PUSH1 0xE3 SHL DUP2 MSTORE PUSH1 0x4 ADD PUSH1 0x40 MLOAD DUP1 SWAP2 SUB SWAP1 REVERT JUMPDEST PUSH1 0x0 DUP4 DUP2 MSTORE PUSH1 0x2 PUSH1 0x20 MSTORE PUSH1 0x40 DUP1 DUP3 KECCAK256 DUP1 SLOAD PUSH1 0x1 PUSH1 0x1 PUSH1 0xA0 SHL SUB NOT AND PUSH1 0x1 PUSH1 0x1 PUSH1 0xA0 SHL SUB DUP7 AND SWAP1 DUP2 OR SWAP1 SWAP2 SSTORE SWAP1 MLOAD SWAP1 SWAP2 CALLER SWAP2 DUP7 SWAP2 PUSH32 0xBA83579A0E79193EF649B9F5A8759D35AF086BA62A3E207B52E4A8AE30D49E3 SWAP2 LOG4 POP POP POP JUMP JUMPDEST DUP3 PUSH1 0x10 DUP2 LT DUP1 PUSH2 0x692 JUMPI POP PUSH1 0x20 DUP2 GT JUMPDEST ISZERO PUSH2 0x6B0 JUMPI PUSH1 0x40 MLOAD PUSH4 0x767B2789 PUSH1 0xE1 SHL DUP2 MSTORE PUSH1 0x4 ADD PUSH1 0x40 MLOAD DUP1 SWAP2 SUB SWAP1 REVERT JUMPDEST PUSH2 0x6BA DUP6 DUP6 PUSH2 0xB15 JUMP JUMPDEST PUSH1 0x0 DUP6 DUP2 MSTORE PUSH1 0x2 PUSH1 0x20 MSTORE PUSH1 0x40 DUP1 DUP3 KECCAK256 DUP1 SLOAD PUSH1 0x1 PUSH1 0x1 PUSH1 0xA0 SHL SUB NOT AND PUSH1 0x1 PUSH1 0x1 PUSH1 0xA0 SHL SUB DUP8 AND SWAP1 DUP2 OR DUP3 SSTORE PUSH1 0x1 SWAP1 SWAP2 ADD DUP6 SWAP1 SSTORE SWAP1 MLOAD SWAP1 SWAP2 SWAP1 DUP8 SWAP1 PUSH32 0xBA83579A0E79193EF649B9F5A8759D35AF086BA62A3E207B52E4A8AE30D49E3 SWAP1 DUP4 SWAP1 LOG4 POP POP POP POP POP JUMP JUMPDEST DUP2 PUSH1 0x10 DUP2 LT DUP1 PUSH2 0x72F JUMPI POP PUSH1 0x20 DUP2 GT JUMPDEST ISZERO PUSH2 0x74D JUMPI PUSH1 0x40 MLOAD PUSH4 0x767B2789 PUSH1 0xE1 SHL DUP2 MSTORE PUSH1 0x4 ADD PUSH1 0x40 MLOAD DUP1 SWAP2 SUB SWAP1 REVERT JUMPDEST PUSH2 0x757 DUP5 DUP5 PUSH2 0xB15 JUMP JUMPDEST PUSH1 0x0 DUP5 DUP2 MSTORE PUSH1 0x2 PUSH1 0x20 MSTORE PUSH1 0x40 DUP1 DUP3 KECCAK256 DUP1 SLOAD PUSH1 0x1 PUSH1 0x1 PUSH1 0xA0 SHL SUB NOT AND PUSH1 0x1 PUSH1 0x1 PUSH1 0xA0 SHL SUB DUP7 AND SWAP1 DUP2 OR DUP3 SSTORE PUSH2 0xE10 PUSH1 0x1 SWAP1 SWAP3 ADD SWAP2 SWAP1 SWAP2 SSTORE SWAP1 MLOAD SWAP1 SWAP2 SWAP1 DUP7 SWAP1 PUSH32 0xBA83579A0E79193EF649B9F5A8759D35AF086BA62A3E207B52E4A8AE30D49E3 SWAP1 DUP4 SWAP1 LOG4 POP POP POP POP JUMP JUMPDEST PUSH1 0x0 DUP8 DUP2 MSTORE PUSH1 0x2 PUSH1 0x20 MSTORE PUSH1 0x40 SWAP1 KECCAK256 SLOAD DUP8 SWAP1 PUSH1 0x1 PUSH1 0x1 PUSH1 0xA0 SHL SUB AND CALLER EQ PUSH2 0x7F8 JUMPI PUSH1 0x40 MLOAD PUSH4 0x17737E4F PUSH1 0xE3 SHL DUP2 MSTORE PUSH1 0x4 ADD PUSH1 0x40 MLOAD DUP1 SWAP2 SUB SWAP1 REVERT JUMPDEST PUSH2 0x807 DUP9 DUP9 DUP9 DUP9 DUP9 DUP9 DUP9 PUSH2 0xC2E JUMP JUMPDEST POP POP POP PUSH1 0x0 SWAP5 DUP6 MSTORE POP POP POP PUSH1 0x20 DUP3 DUP2 MSTORE PUSH1 0x40 DUP1 DUP5 KECCAK256 PUSH1 0x1 ADD SLOAD PUSH1 0x2 DUP1 DUP5 MSTORE DUP3 DUP7 KECCAK256 SWAP2 DUP7 MSTORE ADD SWAP1 SWAP2 MSTORE SWAP1 SWAP2 KECCAK256 TIMESTAMP SWAP1 SSTORE POP JUMP JUMPDEST PUSH1 0x0 DUP3 DUP2 MSTORE PUSH1 0x2 PUSH1 0x20 MSTORE PUSH1 0x40 SWAP1 KECCAK256 SLOAD DUP3 SWAP1 PUSH1 0x1 PUSH1 0x1 PUSH1 0xA0 SHL SUB AND CALLER EQ PUSH2 0x871 JUMPI PUSH1 0x40 MLOAD PUSH4 0x17737E4F PUSH1 0xE3 SHL DUP2 MSTORE PUSH1 0x4 ADD PUSH1 0x40 MLOAD DUP1 SWAP2 SUB SWAP1 REVERT JUMPDEST PUSH1 0x0 DUP4 DUP2 MSTORE PUSH1 0x2 PUSH1 0x20 SWAP1 DUP2 MSTORE PUSH1 0x40 SWAP2 DUP3 SWAP1 KECCAK256 PUSH1 0x1 ADD DUP1 SLOAD SWAP1 DUP6 SWAP1 SSTORE DUP3 MLOAD DUP2 DUP2 MSTORE SWAP2 DUP3 ADD DUP6 SWAP1 MSTORE SWAP2 DUP6 SWAP2 PUSH32 0x264B2A8F6763C084235FE832BA903482B2EF1A521336881FC75B987C2DFD29C5 SWAP2 ADD JUMPDEST PUSH1 0x40 MLOAD DUP1 SWAP2 SUB SWAP1 LOG2 POP POP POP POP JUMP JUMPDEST PUSH1 0x0 DUP3 DUP2 MSTORE PUSH1 0x20 DUP2 SWAP1 MSTORE PUSH1 0x40 SWAP1 KECCAK256 SLOAD PUSH2 0x8F8 JUMPI PUSH1 0x40 MLOAD PUSH4 0x29F0579 PUSH1 0xE0 SHL DUP2 MSTORE PUSH1 0x4 ADD PUSH1 0x40 MLOAD DUP1 SWAP2 SUB SWAP1 REVERT JUMPDEST PUSH1 0x0 DUP3 DUP2 MSTORE PUSH1 0x20 DUP2 SWAP1 MSTORE PUSH1 0x40 SWAP1 DUP2 SWAP1 KECCAK256 SWAP1 MLOAD PUSH4 0xB4381FD PUSH1 0xE1 SHL DUP2 MSTORE PUSH1 0x4 DUP2 ADD SWAP2 SWAP1 SWAP2 MSTORE PUSH1 0x24 DUP2 ADD DUP3 SWAP1 MSTORE PUSH20 0x0 SWAP1 PUSH4 0x168703FA SWAP1 PUSH1 0x44 ADD PUSH1 0x20 PUSH1 0x40 MLOAD DUP1 DUP4 SUB DUP2 DUP7 DUP1 EXTCODESIZE ISZERO DUP1 ISZERO PUSH2 0x95A JUMPI PUSH1 0x0 DUP1 REVERT JUMPDEST POP GAS DELEGATECALL ISZERO DUP1 ISZERO PUSH2 0x96E JUMPI RETURNDATASIZE PUSH1 0x0 DUP1 RETURNDATACOPY RETURNDATASIZE PUSH1 0x0 REVERT JUMPDEST POP POP POP POP PUSH1 0x40 MLOAD RETURNDATASIZE PUSH1 0x1F NOT PUSH1 0x1F DUP3 ADD AND DUP3 ADD DUP1 PUSH1 0x40 MSTORE POP DUP2 ADD SWAP1 PUSH2 0x992 SWAP2 SWAP1 PUSH2 0xEBD JUMP JUMPDEST POP PUSH1 0x0 DUP3 DUP2 MSTORE PUSH1 0x20 DUP2 SWAP1 MSTORE PUSH1 0x40 DUP2 KECCAK256 PUSH1 0x1 DUP1 DUP3 ADD SLOAD PUSH1 0x2 SWAP1 SWAP3 ADD SLOAD SWAP2 SWAP3 SWAP2 PUSH2 0x9BA SWAP2 SWAP1 PUSH2 0x12CC JUMP JUMPDEST PUSH1 0x40 DUP1 MLOAD DUP3 DUP2 MSTORE PUSH1 0x20 DUP2 ADD DUP7 SWAP1 MSTORE SWAP1 DUP2 ADD DUP5 SWAP1 MSTORE SWAP1 SWAP2 POP DUP5 SWAP1 PUSH32 0x19239B3F93CD10558AAF11423AF70C77763BF54F52BCC75BFA74D4D13548CDE9 SWAP1 PUSH1 0x60 ADD PUSH2 0x8BE JUMP JUMPDEST PUSH1 0x0 DUP7 DUP2 MSTORE PUSH1 0x20 DUP2 SWAP1 MSTORE PUSH1 0x40 SWAP1 KECCAK256 SLOAD PUSH2 0xA29 JUMPI PUSH1 0x40 MLOAD PUSH4 0x29F0579 PUSH1 0xE0 SHL DUP2 MSTORE PUSH1 0x4 ADD PUSH1 0x40 MLOAD DUP1 SWAP2 SUB SWAP1 REVERT JUMPDEST PUSH1 0x0 DUP7 DUP2 MSTORE PUSH1 0x20 DUP2 SWAP1 MSTORE PUSH1 0x40 SWAP1 DUP2 SWAP1 KECCAK256 SWAP1 MLOAD PUSH4 0x629596F PUSH1 0xE0 SHL DUP2 MSTORE PUSH20 0x0 SWAP2 PUSH4 0x629596F SWAP2 PUSH2 0xA78 SWAP2 SWAP1 DUP10 SWAP1 DUP10 SWAP1 DUP10 SWAP1 DUP10 SWAP1 DUP10 SWAP1 PUSH1 0x4 ADD PUSH2 0x11D3 JUMP JUMPDEST PUSH1 0x0 PUSH1 0x40 MLOAD DUP1 DUP4 SUB DUP2 DUP7 DUP1 EXTCODESIZE ISZERO DUP1 ISZERO PUSH2 0xA90 JUMPI PUSH1 0x0 DUP1 REVERT JUMPDEST POP GAS DELEGATECALL ISZERO DUP1 ISZERO PUSH2 0xAA4 JUMPI RETURNDATASIZE PUSH1 0x0 DUP1 RETURNDATACOPY RETURNDATASIZE PUSH1 0x0 REVERT JUMPDEST POP POP POP PUSH1 0x0 DUP8 DUP2 MSTORE PUSH1 0x20 DUP2 SWAP1 MSTORE PUSH1 0x40 DUP2 KECCAK256 PUSH1 0x1 ADD SLOAD SWAP2 POP PUSH2 0xAC5 DUP5 DUP5 PUSH2 0xD50 JUMP JUMPDEST PUSH1 0x40 DUP1 MLOAD DUP3 DUP2 MSTORE PUSH1 0x20 DUP2 ADD DUP11 SWAP1 MSTORE SWAP1 DUP2 ADD DUP5 SWAP1 MSTORE SWAP1 SWAP2 POP DUP9 SWAP1 PUSH32 0x3108849C053C77B8073A11256DFFB5FFD5B55E93E105A355E1C9061DB890D871 SWAP1 PUSH1 0x60 ADD PUSH1 0x40 MLOAD DUP1 SWAP2 SUB SWAP1 LOG2 POP POP POP POP POP POP POP POP JUMP JUMPDEST PUSH1 0x0 DUP3 DUP2 MSTORE PUSH1 0x20 DUP2 SWAP1 MSTORE PUSH1 0x40 SWAP1 KECCAK256 SLOAD ISZERO PUSH2 0xB42 JUMPI PUSH1 0x40 MLOAD PUSH4 0x8121725B PUSH1 0xE0 SHL DUP2 MSTORE PUSH1 0x4 ADD PUSH1 0x40 MLOAD DUP1 SWAP2 SUB SWAP1 REVERT JUMPDEST PUSH1 0x0 PUSH1 0x8 DUP4 PUSH1 0x40 MLOAD PUSH1 0x20 ADD PUSH2 0xB59 SWAP2 DUP2 MSTORE PUSH1 0x20 ADD SWAP1 JUMP JUMPDEST PUSH1 0x40 DUP1 MLOAD DUP1 DUP4 SUB PUSH1 0x1F NOT ADD DUP2 MSTORE DUP3 DUP3 MSTORE DUP1 MLOAD PUSH1 0x20 SWAP2 DUP3 ADD KECCAK256 PUSH1 0x0 DUP9 DUP2 MSTORE SWAP2 DUP3 SWAP1 MSTORE SWAP2 SWAP1 KECCAK256 PUSH4 0x4257EED PUSH1 0xE2 SHL DUP4 MSTORE PUSH1 0x4 DUP4 ADD MSTORE PUSH1 0x24 DUP3 ADD DUP6 SWAP1 MSTORE SWAP1 SWAP2 SHR PUSH1 0x44 DUP3 ADD DUP2 SWAP1 MSTORE SWAP2 POP PUSH20 0x0 SWAP1 PUSH4 0x1095FBB4 SWAP1 PUSH1 0x64 ADD PUSH1 0x0 PUSH1 0x40 MLOAD DUP1 DUP4 SUB DUP2 DUP7 DUP1 EXTCODESIZE ISZERO DUP1 ISZERO PUSH2 0xBD6 JUMPI PUSH1 0x0 DUP1 REVERT JUMPDEST POP GAS DELEGATECALL ISZERO DUP1 ISZERO PUSH2 0xBEA JUMPI RETURNDATASIZE PUSH1 0x0 DUP1 RETURNDATACOPY RETURNDATASIZE PUSH1 0x0 REVERT JUMPDEST POP POP PUSH1 0x40 DUP1 MLOAD DUP6 DUP2 MSTORE PUSH1 0x20 DUP2 ADD DUP6 SWAP1 MSTORE DUP7 SWAP4 POP PUSH32 0xD000126C26C1BBE400FD2332187F75D58B69306F9EC47B408686189D3A00833 SWAP3 POP ADD PUSH1 0x40 MLOAD DUP1 SWAP2 SUB SWAP1 LOG2 POP POP POP JUMP JUMPDEST PUSH1 0x0 DUP8 DUP2 MSTORE PUSH1 0x20 DUP2 SWAP1 MSTORE PUSH1 0x40 SWAP1 KECCAK256 SLOAD PUSH2 0xC5A JUMPI PUSH1 0x40 MLOAD PUSH4 0x29F0579 PUSH1 0xE0 SHL DUP2 MSTORE PUSH1 0x4 ADD PUSH1 0x40 MLOAD DUP1 SWAP2 SUB SWAP1 REVERT JUMPDEST PUSH1 0x0 DUP8 DUP2 MSTORE PUSH1 0x20 DUP2 SWAP1 MSTORE PUSH1 0x40 SWAP1 DUP2 SWAP1 KECCAK256 SWAP1 MLOAD PUSH4 0xA5478827 PUSH1 0xE0 SHL DUP2 MSTORE PUSH20 0x0 SWAP2 PUSH4 0xA5478827 SWAP2 PUSH2 0xCAB SWAP2 SWAP1 DUP11 SWAP1 DUP11 SWAP1 DUP11 SWAP1 DUP11 SWAP1 DUP11 SWAP1 DUP11 SWAP1 PUSH1 0x4 ADD PUSH2 0x1213 JUMP JUMPDEST PUSH1 0x0 PUSH1 0x40 MLOAD DUP1 DUP4 SUB DUP2 DUP7 DUP1 EXTCODESIZE ISZERO DUP1 ISZERO PUSH2 0xCC3 JUMPI PUSH1 0x0 DUP1 REVERT JUMPDEST POP GAS DELEGATECALL ISZERO DUP1 ISZERO PUSH2 0xCD7 JUMPI RETURNDATASIZE PUSH1 0x0 DUP1 RETURNDATACOPY RETURNDATASIZE PUSH1 0x0 REVERT JUMPDEST POP POP POP PUSH1 0x0 DUP9 DUP2 MSTORE PUSH1 0x20 DUP2 SWAP1 MSTORE PUSH1 0x40 DUP2 KECCAK256 PUSH1 0x1 ADD SLOAD SWAP2 POP PUSH2 0xCF8 DUP5 DUP5 PUSH2 0xD50 JUMP JUMPDEST PUSH1 0x40 DUP1 MLOAD DUP3 DUP2 MSTORE PUSH1 0x20 DUP2 ADD DUP12 SWAP1 MSTORE SWAP1 DUP2 ADD DUP10 SWAP1 MSTORE PUSH1 0x60 DUP2 ADD DUP5 SWAP1 MSTORE SWAP1 SWAP2 POP DUP10 SWAP1 PUSH32 0xEA3588E4A2A0C93D6A0E69DFEAF7496F43CCCCF02AD9CE0A5B7627CBCA4B61B1 SWAP1 PUSH1 0x80 ADD PUSH1 0x40 MLOAD DUP1 SWAP2 SUB SWAP1 LOG2 POP POP POP POP POP POP POP POP POP JUMP JUMPDEST PUSH1 0x0 DUP1 DUP3 JUMPDEST PUSH1 0xFF DUP2 AND ISZERO PUSH2 0xE26 JUMPI PUSH1 0x0 DUP3 GT DUP1 PUSH2 0xDB0 JUMPI POP DUP5 DUP5 PUSH2 0xD75 PUSH1 0x1 DUP5 PUSH2 0x12E3 JUMP JUMPDEST PUSH1 0xFF AND DUP2 DUP2 LT PUSH2 0xD95 JUMPI PUSH4 0x4E487B71 PUSH1 0xE0 SHL PUSH1 0x0 MSTORE PUSH1 0x32 PUSH1 0x4 MSTORE PUSH1 0x24 PUSH1 0x0 REVERT JUMPDEST SWAP1 POP PUSH1 0x20 MUL ADD PUSH1 0x20 DUP2 ADD SWAP1 PUSH2 0xDAA SWAP2 SWAP1 PUSH2 0x113E JUMP JUMPDEST PUSH1 0xFF AND ISZERO ISZERO JUMPDEST ISZERO PUSH2 0xE1D JUMPI PUSH2 0xDC0 PUSH1 0x2 DUP4 PUSH2 0x12AD JUMP JUMPDEST SWAP2 POP DUP5 DUP5 PUSH2 0xDCF PUSH1 0x1 DUP5 PUSH2 0x12E3 JUMP JUMPDEST PUSH1 0xFF AND DUP2 DUP2 LT PUSH2 0xDEF JUMPI PUSH4 0x4E487B71 PUSH1 0xE0 SHL PUSH1 0x0 MSTORE PUSH1 0x32 PUSH1 0x4 MSTORE PUSH1 0x24 PUSH1 0x0 REVERT JUMPDEST SWAP1 POP PUSH1 0x20 MUL ADD PUSH1 0x20 DUP2 ADD SWAP1 PUSH2 0xE04 SWAP2 SWAP1 PUSH2 0x113E JUMP JUMPDEST PUSH1 0xFF AND PUSH1 0x1 EQ ISZERO PUSH2 0xE1D JUMPI PUSH2 0xE1A PUSH1 0x1 DUP4 PUSH2 0x1295 JUMP JUMPDEST SWAP2 POP JUMPDEST PUSH1 0x0 NOT ADD PUSH2 0xD55 JUMP JUMPDEST POP SWAP4 SWAP3 POP POP POP JUMP JUMPDEST DUP1 CALLDATALOAD PUSH1 0x1 PUSH1 0x1 PUSH1 0xA0 SHL SUB DUP2 AND DUP2 EQ PUSH2 0xE45 JUMPI PUSH1 0x0 DUP1 REVERT JUMPDEST SWAP2 SWAP1 POP JUMP JUMPDEST PUSH1 0x0 DUP1 DUP4 PUSH1 0x1F DUP5 ADD SLT PUSH2 0xE5B JUMPI DUP2 DUP3 REVERT JUMPDEST POP DUP2 CALLDATALOAD PUSH8 0xFFFFFFFFFFFFFFFF DUP2 GT ISZERO PUSH2 0xE72 JUMPI DUP2 DUP3 REVERT JUMPDEST PUSH1 0x20 DUP4 ADD SWAP2 POP DUP4 PUSH1 0x20 DUP3 PUSH1 0x5 SHL DUP6 ADD ADD GT ISZERO PUSH2 0xE8D JUMPI PUSH1 0x0 DUP1 REVERT JUMPDEST SWAP3 POP SWAP3 SWAP1 POP JUMP JUMPDEST DUP1 CALLDATALOAD PUSH1 0xFF DUP2 AND DUP2 EQ PUSH2 0xE45 JUMPI PUSH1 0x0 DUP1 REVERT JUMPDEST PUSH1 0x0 PUSH1 0x20 DUP3 DUP5 SUB SLT ISZERO PUSH2 0xEB6 JUMPI DUP1 DUP2 REVERT JUMPDEST POP CALLDATALOAD SWAP2 SWAP1 POP JUMP JUMPDEST PUSH1 0x0 PUSH1 0x20 DUP3 DUP5 SUB SLT ISZERO PUSH2 0xECE JUMPI DUP1 DUP2 REVERT JUMPDEST POP MLOAD SWAP2 SWAP1 POP JUMP JUMPDEST PUSH1 0x0 DUP1 PUSH1 0x40 DUP4 DUP6 SUB SLT ISZERO PUSH2 0xEE7 JUMPI DUP1 DUP2 REVERT JUMPDEST DUP3 CALLDATALOAD SWAP2 POP PUSH2 0xEF7 PUSH1 0x20 DUP5 ADD PUSH2 0xE2E JUMP JUMPDEST SWAP1 POP SWAP3 POP SWAP3 SWAP1 POP JUMP JUMPDEST PUSH1 0x0 DUP1 PUSH1 0x0 PUSH1 0x40 DUP5 DUP7 SUB SLT ISZERO PUSH2 0xF14 JUMPI DUP1 DUP2 REVERT JUMPDEST DUP4 CALLDATALOAD SWAP3 POP PUSH1 0x20 DUP5 ADD CALLDATALOAD PUSH8 0xFFFFFFFFFFFFFFFF DUP2 GT ISZERO PUSH2 0xF31 JUMPI DUP2 DUP3 REVERT JUMPDEST PUSH2 0xF3D DUP7 DUP3 DUP8 ADD PUSH2 0xE4A JUMP JUMPDEST SWAP5 SWAP8 SWAP1 SWAP7 POP SWAP4 SWAP5 POP POP POP POP JUMP JUMPDEST PUSH1 0x0 DUP1 PUSH1 0x40 DUP4 DUP6 SUB SLT ISZERO PUSH2 0xF5C JUMPI DUP2 DUP3 REVERT JUMPDEST POP POP DUP1 CALLDATALOAD SWAP3 PUSH1 0x20 SWAP1 SWAP2 ADD CALLDATALOAD SWAP2 POP JUMP JUMPDEST PUSH1 0x0 DUP1 PUSH1 0x0 PUSH1 0x60 DUP5 DUP7 SUB SLT ISZERO PUSH2 0xF7F JUMPI DUP3 DUP4 REVERT JUMPDEST DUP4 CALLDATALOAD SWAP3 POP PUSH1 0x20 DUP5 ADD CALLDATALOAD SWAP2 POP PUSH2 0xF96 PUSH1 0x40 DUP6 ADD PUSH2 0xE2E JUMP JUMPDEST SWAP1 POP SWAP3 POP SWAP3 POP SWAP3 JUMP JUMPDEST PUSH1 0x0 DUP1 PUSH1 0x0 DUP1 PUSH1 0x80 DUP6 DUP8 SUB SLT ISZERO PUSH2 0xFB4 JUMPI DUP1 DUP2 REVERT JUMPDEST DUP5 CALLDATALOAD SWAP4 POP PUSH1 0x20 DUP6 ADD CALLDATALOAD SWAP3 POP PUSH2 0xFCB PUSH1 0x40 DUP7 ADD PUSH2 0xE2E JUMP JUMPDEST SWAP4 SWAP7 SWAP3 SWAP6 POP SWAP3 SWAP4 PUSH1 0x60 ADD CALLDATALOAD SWAP3 POP POP JUMP JUMPDEST PUSH1 0x0 DUP1 PUSH1 0x0 DUP1 PUSH1 0x0 DUP1 PUSH1 0x80 DUP8 DUP10 SUB SLT ISZERO PUSH2 0xFF3 JUMPI DUP2 DUP3 REVERT JUMPDEST DUP7 CALLDATALOAD SWAP6 POP PUSH1 0x20 DUP8 ADD CALLDATALOAD SWAP5 POP PUSH1 0x40 DUP8 ADD CALLDATALOAD PUSH8 0xFFFFFFFFFFFFFFFF DUP1 DUP3 GT ISZERO PUSH2 0x1018 JUMPI DUP4 DUP5 REVERT JUMPDEST PUSH2 0x1024 DUP11 DUP4 DUP12 ADD PUSH2 0xE4A JUMP JUMPDEST SWAP1 SWAP7 POP SWAP5 POP PUSH1 0x60 DUP10 ADD CALLDATALOAD SWAP2 POP DUP1 DUP3 GT ISZERO PUSH2 0x103C JUMPI DUP4 DUP5 REVERT JUMPDEST POP PUSH2 0x1049 DUP10 DUP3 DUP11 ADD PUSH2 0xE4A JUMP JUMPDEST SWAP8 SWAP11 SWAP7 SWAP10 POP SWAP5 SWAP8 POP SWAP3 SWAP6 SWAP4 SWAP5 SWAP3 POP POP POP JUMP JUMPDEST PUSH1 0x0 DUP1 PUSH1 0x0 DUP1 PUSH1 0x0 DUP1 PUSH1 0x0 PUSH1 0xA0 DUP9 DUP11 SUB SLT ISZERO PUSH2 0x1075 JUMPI DUP1 DUP2 REVERT JUMPDEST DUP8 CALLDATALOAD SWAP7 POP PUSH1 0x20 DUP9 ADD CALLDATALOAD SWAP6 POP PUSH1 0x40 DUP9 ADD CALLDATALOAD SWAP5 POP PUSH1 0x60 DUP9 ADD CALLDATALOAD PUSH8 0xFFFFFFFFFFFFFFFF DUP1 DUP3 GT ISZERO PUSH2 0x10A1 JUMPI DUP3 DUP4 REVERT JUMPDEST PUSH2 0x10AD DUP12 DUP4 DUP13 ADD PUSH2 0xE4A JUMP JUMPDEST SWAP1 SWAP7 POP SWAP5 POP PUSH1 0x80 DUP11 ADD CALLDATALOAD SWAP2 POP DUP1 DUP3 GT ISZERO PUSH2 0x10C5 JUMPI DUP3 DUP4 REVERT JUMPDEST POP PUSH2 0x10D2 DUP11 DUP3 DUP12 ADD PUSH2 0xE4A JUMP JUMPDEST SWAP9 SWAP12 SWAP8 SWAP11 POP SWAP6 SWAP9 POP SWAP4 SWAP7 SWAP3 SWAP6 SWAP3 SWAP4 POP POP POP JUMP JUMPDEST PUSH1 0x0 DUP1 PUSH1 0x0 DUP1 PUSH1 0x0 DUP1 PUSH2 0x1A0 DUP1 DUP9 DUP11 SUB SLT ISZERO PUSH2 0x10FF JUMPI DUP3 DUP4 REVERT JUMPDEST DUP8 CALLDATALOAD SWAP7 POP PUSH1 0x20 DUP9 ADD CALLDATALOAD SWAP6 POP PUSH1 0x40 DUP9 ADD CALLDATALOAD SWAP5 POP PUSH1 0x60 DUP9 ADD CALLDATALOAD SWAP4 POP PUSH1 0x80 DUP9 ADD CALLDATALOAD SWAP3 POP DUP9 DUP2 DUP10 ADD GT ISZERO PUSH2 0x112D JUMPI DUP2 DUP3 REVERT JUMPDEST POP PUSH1 0xA0 DUP8 ADD SWAP1 POP SWAP3 SWAP6 POP SWAP3 SWAP6 POP SWAP3 SWAP6 JUMP JUMPDEST PUSH1 0x0 PUSH1 0x20 DUP3 DUP5 SUB SLT ISZERO PUSH2 0x114F JUMPI DUP1 DUP2 REVERT JUMPDEST PUSH2 0x1158 DUP3 PUSH2 0xE94 JUMP JUMPDEST SWAP4 SWAP3 POP POP POP JUMP JUMPDEST DUP2 DUP4 MSTORE PUSH1 0x0 PUSH1 0x1 PUSH1 0x1 PUSH1 0xFB SHL SUB DUP4 GT ISZERO PUSH2 0x1177 JUMPI DUP1 DUP2 REVERT JUMPDEST DUP3 PUSH1 0x5 SHL DUP1 DUP4 PUSH1 0x20 DUP8 ADD CALLDATACOPY SWAP4 SWAP1 SWAP4 ADD PUSH1 0x20 ADD SWAP3 DUP4 MSTORE POP SWAP1 SWAP2 SWAP1 POP JUMP JUMPDEST DUP2 DUP4 MSTORE PUSH1 0x0 PUSH1 0x20 DUP1 DUP6 ADD SWAP5 POP DUP3 DUP3 JUMPDEST DUP6 DUP2 LT ISZERO PUSH2 0x11C8 JUMPI PUSH1 0xFF PUSH2 0x11B5 DUP4 PUSH2 0xE94 JUMP JUMPDEST AND DUP8 MSTORE SWAP6 DUP3 ADD SWAP6 SWAP1 DUP3 ADD SWAP1 PUSH1 0x1 ADD PUSH2 0x11A2 JUMP JUMPDEST POP SWAP5 SWAP6 SWAP5 POP POP POP POP POP JUMP JUMPDEST DUP7 DUP2 MSTORE DUP6 PUSH1 0x20 DUP3 ADD MSTORE PUSH1 0x80 PUSH1 0x40 DUP3 ADD MSTORE PUSH1 0x0 PUSH2 0x11F3 PUSH1 0x80 DUP4 ADD DUP7 DUP9 PUSH2 0x115F JUMP JUMPDEST DUP3 DUP2 SUB PUSH1 0x60 DUP5 ADD MSTORE PUSH2 0x1206 DUP2 DUP6 DUP8 PUSH2 0x1193 JUMP JUMPDEST SWAP10 SWAP9 POP POP POP POP POP POP POP POP POP JUMP JUMPDEST DUP8 DUP2 MSTORE DUP7 PUSH1 0x20 DUP3 ADD MSTORE DUP6 PUSH1 0x40 DUP3 ADD MSTORE PUSH1 0xA0 PUSH1 0x60 DUP3 ADD MSTORE PUSH1 0x0 PUSH2 0x1239 PUSH1 0xA0 DUP4 ADD DUP7 DUP9 PUSH2 0x115F JUMP JUMPDEST DUP3 DUP2 SUB PUSH1 0x80 DUP5 ADD MSTORE PUSH2 0x124C DUP2 DUP6 DUP8 PUSH2 0x1193 JUMP JUMPDEST SWAP11 SWAP10 POP POP POP POP POP POP POP POP POP POP JUMP JUMPDEST PUSH1 0x0 PUSH2 0x1A0 DUP3 ADD SWAP1 POP DUP8 DUP3 MSTORE DUP7 PUSH1 0x20 DUP4 ADD MSTORE DUP6 PUSH1 0x40 DUP4 ADD MSTORE DUP5 PUSH1 0x60 DUP4 ADD MSTORE PUSH2 0x100 DUP5 PUSH1 0x80 DUP5 ADD CALLDATACOPY PUSH2 0x180 SWAP2 SWAP1 SWAP2 ADD SWAP2 SWAP1 SWAP2 MSTORE SWAP6 SWAP5 POP POP POP POP POP JUMP JUMPDEST PUSH1 0x0 DUP3 NOT DUP3 GT ISZERO PUSH2 0x12A8 JUMPI PUSH2 0x12A8 PUSH2 0x1306 JUMP JUMPDEST POP ADD SWAP1 JUMP JUMPDEST PUSH1 0x0 DUP2 PUSH1 0x0 NOT DIV DUP4 GT DUP3 ISZERO ISZERO AND ISZERO PUSH2 0x12C7 JUMPI PUSH2 0x12C7 PUSH2 0x1306 JUMP JUMPDEST POP MUL SWAP1 JUMP JUMPDEST PUSH1 0x0 DUP3 DUP3 LT ISZERO PUSH2 0x12DE JUMPI PUSH2 0x12DE PUSH2 0x1306 JUMP JUMPDEST POP SUB SWAP1 JUMP JUMPDEST PUSH1 0x0 PUSH1 0xFF DUP3 AND PUSH1 0xFF DUP5 AND DUP1 DUP3 LT ISZERO PUSH2 0x12FD JUMPI PUSH2 0x12FD PUSH2 0x1306 JUMP JUMPDEST SWAP1 SUB SWAP4 SWAP3 POP POP POP JUMP JUMPDEST PUSH4 0x4E487B71 PUSH1 0xE0 SHL PUSH1 0x0 MSTORE PUSH1 0x11 PUSH1 0x4 MSTORE PUSH1 0x24 PUSH1 0x0 REVERT INVALID LOG2 PUSH5 0x6970667358 0x22 SLT KECCAK256 0x28 NOT 0xE7 0x26 0x1E 0xEE DUP3 0xB4 SDIV CALLDATASIZE PUSH27 0x854E7744448F6C468BDA60FE197645554E5327261C64736F6C6343 STOP ADDMOD DIV STOP CALLER "
		},
		"gasEstimates": {
			"creation": {
				"codeDepositCost": "989200",
				"executionCost": "infinite",
				"totalCost": "infinite"
			},
			"external": {
				"addMember(uint256,uint256)": "infinite",
				"addMembers(uint256,uint256[])": "infinite",
				"createGroup(uint256,uint256,address)": "infinite",
				"createGroup(uint256,uint256,address,uint256)": "infinite",
				"getMerkleTreeDepth(uint256)": "1164",
				"getMerkleTreeRoot(uint256)": "1191",
				"getNumberOfMerkleTreeLeaves(uint256)": "1236",
				"groups(uint256)": "2092",
				"removeMember(uint256,uint256,uint256[],uint8[])": "infinite",
				"updateGroupAdmin(uint256,address)": "24149",
				"updateGroupMerkleTreeDuration(uint256,uint256)": "23867",
				"updateMember(uint256,uint256,uint256,uint256[],uint8[])": "infinite",
				"verifier()": "1094",
				"verifyProof(uint256,uint256,uint256,uint256,uint256,uint256[8])": "infinite"
			}
		},
		"methodIdentifiers": {
			"addMember(uint256,uint256)": "1783efc3",
			"addMembers(uint256,uint256[])": "04245371",
			"createGroup(uint256,uint256,address)": "9c112141",
			"createGroup(uint256,uint256,address,uint256)": "65e54f83",
			"getMerkleTreeDepth(uint256)": "6389e107",
			"getMerkleTreeRoot(uint256)": "dabc4d51",
			"getNumberOfMerkleTreeLeaves(uint256)": "638480be",
			"groups(uint256)": "96324bd4",
			"removeMember(uint256,uint256,uint256[],uint8[])": "43989f85",
			"updateGroupAdmin(uint256,address)": "568ee826",
			"updateGroupMerkleTreeDuration(uint256,uint256)": "fcf0b6ec",
			"updateMember(uint256,uint256,uint256,uint256[],uint8[])": "ec45622a",
			"verifier()": "2b7ac3f3",
			"verifyProof(uint256,uint256,uint256,uint256,uint256,uint256[8])": "3bc778e3"
		}
	},
	"abi": [
		{
			"inputs": [
				{
					"internalType": "contract ISemaphoreVerifier",
					"name": "_verifier",
					"type": "address"
				}
			],
			"stateMutability": "nonpayable",
			"type": "constructor"
		},
		{
			"inputs": [],
			"name": "Semaphore__CallerIsNotTheGroupAdmin",
			"type": "error"
		},
		{
			"inputs": [],
			"name": "Semaphore__GroupAlreadyExists",
			"type": "error"
		},
		{
			"inputs": [],
			"name": "Semaphore__GroupDoesNotExist",
			"type": "error"
		},
		{
			"inputs": [],
			"name": "Semaphore__MerkleTreeDepthIsNotSupported",
			"type": "error"
		},
		{
			"inputs": [],
			"name": "Semaphore__MerkleTreeRootIsExpired",
			"type": "error"
		},
		{
			"inputs": [],
			"name": "Semaphore__MerkleTreeRootIsNotPartOfTheGroup",
			"type": "error"
		},
		{
			"inputs": [],
			"name": "Semaphore__YouAreUsingTheSameNillifierTwice",
			"type": "error"
		},
		{
			"anonymous": false,
			"inputs": [
				{
					"indexed": true,
					"internalType": "uint256",
					"name": "groupId",
					"type": "uint256"
				},
				{
					"indexed": true,
					"internalType": "address",
					"name": "oldAdmin",
					"type": "address"
				},
				{
					"indexed": true,
					"internalType": "address",
					"name": "newAdmin",
					"type": "address"
				}
			],
			"name": "GroupAdminUpdated",
			"type": "event"
		},
		{
			"anonymous": false,
			"inputs": [
				{
					"indexed": true,
					"internalType": "uint256",
					"name": "groupId",
					"type": "uint256"
				},
				{
					"indexed": false,
					"internalType": "uint256",
					"name": "merkleTreeDepth",
					"type": "uint256"
				},
				{
					"indexed": false,
					"internalType": "uint256",
					"name": "zeroValue",
					"type": "uint256"
				}
			],
			"name": "GroupCreated",
			"type": "event"
		},
		{
			"anonymous": false,
			"inputs": [
				{
					"indexed": true,
					"internalType": "uint256",
					"name": "groupId",
					"type": "uint256"
				},
				{
					"indexed": false,
					"internalType": "uint256",
					"name": "oldMerkleTreeDuration",
					"type": "uint256"
				},
				{
					"indexed": false,
					"internalType": "uint256",
					"name": "newMerkleTreeDuration",
					"type": "uint256"
				}
			],
			"name": "GroupMerkleTreeDurationUpdated",
			"type": "event"
		},
		{
			"anonymous": false,
			"inputs": [
				{
					"indexed": true,
					"internalType": "uint256",
					"name": "groupId",
					"type": "uint256"
				},
				{
					"indexed": false,
					"internalType": "uint256",
					"name": "index",
					"type": "uint256"
				},
				{
					"indexed": false,
					"internalType": "uint256",
					"name": "identityCommitment",
					"type": "uint256"
				},
				{
					"indexed": false,
					"internalType": "uint256",
					"name": "merkleTreeRoot",
					"type": "uint256"
				}
			],
			"name": "MemberAdded",
			"type": "event"
		},
		{
			"anonymous": false,
			"inputs": [
				{
					"indexed": true,
					"internalType": "uint256",
					"name": "groupId",
					"type": "uint256"
				},
				{
					"indexed": false,
					"internalType": "uint256",
					"name": "index",
					"type": "uint256"
				},
				{
					"indexed": false,
					"internalType": "uint256",
					"name": "identityCommitment",
					"type": "uint256"
				},
				{
					"indexed": false,
					"internalType": "uint256",
					"name": "merkleTreeRoot",
					"type": "uint256"
				}
			],
			"name": "MemberRemoved",
			"type": "event"
		},
		{
			"anonymous": false,
			"inputs": [
				{
					"indexed": true,
					"internalType": "uint256",
					"name": "groupId",
					"type": "uint256"
				},
				{
					"indexed": false,
					"internalType": "uint256",
					"name": "index",
					"type": "uint256"
				},
				{
					"indexed": false,
					"internalType": "uint256",
					"name": "identityCommitment",
					"type": "uint256"
				},
				{
					"indexed": false,
					"internalType": "uint256",
					"name": "newIdentityCommitment",
					"type": "uint256"
				},
				{
					"indexed": false,
					"internalType": "uint256",
					"name": "merkleTreeRoot",
					"type": "uint256"
				}
			],
			"name": "MemberUpdated",
			"type": "event"
		},
		{
			"anonymous": false,
			"inputs": [
				{
					"indexed": true,
					"internalType": "uint256",
					"name": "groupId",
					"type": "uint256"
				},
				{
					"indexed": true,
					"internalType": "uint256",
					"name": "merkleTreeRoot",
					"type": "uint256"
				},
				{
					"indexed": false,
					"internalType": "uint256",
					"name": "nullifierHash",
					"type": "uint256"
				},
				{
					"indexed": true,
					"internalType": "uint256",
					"name": "externalNullifier",
					"type": "uint256"
				},
				{
					"indexed": false,
					"internalType": "uint256",
					"name": "signal",
					"type": "uint256"
				}
			],
			"name": "ProofVerified",
			"type": "event"
		},
		{
			"inputs": [
				{
					"internalType": "uint256",
					"name": "groupId",
					"type": "uint256"
				},
				{
					"internalType": "uint256",
					"name": "identityCommitment",
					"type": "uint256"
				}
			],
			"name": "addMember",
			"outputs": [],
			"stateMutability": "nonpayable",
			"type": "function"
		},
		{
			"inputs": [
				{
					"internalType": "uint256",
					"name": "groupId",
					"type": "uint256"
				},
				{
					"internalType": "uint256[]",
					"name": "identityCommitments",
					"type": "uint256[]"
				}
			],
			"name": "addMembers",
			"outputs": [],
			"stateMutability": "nonpayable",
			"type": "function"
		},
		{
			"inputs": [
				{
					"internalType": "uint256",
					"name": "groupId",
					"type": "uint256"
				},
				{
					"internalType": "uint256",
					"name": "merkleTreeDepth",
					"type": "uint256"
				},
				{
					"internalType": "address",
					"name": "admin",
					"type": "address"
				},
				{
					"internalType": "uint256",
					"name": "merkleTreeDuration",
					"type": "uint256"
				}
			],
			"name": "createGroup",
			"outputs": [],
			"stateMutability": "nonpayable",
			"type": "function"
		},
		{
			"inputs": [
				{
					"internalType": "uint256",
					"name": "groupId",
					"type": "uint256"
				},
				{
					"internalType": "uint256",
					"name": "merkleTreeDepth",
					"type": "uint256"
				},
				{
					"internalType": "address",
					"name": "admin",
					"type": "address"
				}
			],
			"name": "createGroup",
			"outputs": [],
			"stateMutability": "nonpayable",
			"type": "function"
		},
		{
			"inputs": [
				{
					"internalType": "uint256",
					"name": "groupId",
					"type": "uint256"
				}
			],
			"name": "getMerkleTreeDepth",
			"outputs": [
				{
					"internalType": "uint256",
					"name": "",
					"type": "uint256"
				}
			],
			"stateMutability": "view",
			"type": "function"
		},
		{
			"inputs": [
				{
					"internalType": "uint256",
					"name": "groupId",
					"type": "uint256"
				}
			],
			"name": "getMerkleTreeRoot",
			"outputs": [
				{
					"internalType": "uint256",
					"name": "",
					"type": "uint256"
				}
			],
			"stateMutability": "view",
			"type": "function"
		},
		{
			"inputs": [
				{
					"internalType": "uint256",
					"name": "groupId",
					"type": "uint256"
				}
			],
			"name": "getNumberOfMerkleTreeLeaves",
			"outputs": [
				{
					"internalType": "uint256",
					"name": "",
					"type": "uint256"
				}
			],
			"stateMutability": "view",
			"type": "function"
		},
		{
			"inputs": [
				{
					"internalType": "uint256",
					"name": "",
					"type": "uint256"
				}
			],
			"name": "groups",
			"outputs": [
				{
					"internalType": "address",
					"name": "admin",
					"type": "address"
				},
				{
					"internalType": "uint256",
					"name": "merkleTreeDuration",
					"type": "uint256"
				}
			],
			"stateMutability": "view",
			"type": "function"
		},
		{
			"inputs": [
				{
					"internalType": "uint256",
					"name": "groupId",
					"type": "uint256"
				},
				{
					"internalType": "uint256",
					"name": "identityCommitment",
					"type": "uint256"
				},
				{
					"internalType": "uint256[]",
					"name": "proofSiblings",
					"type": "uint256[]"
				},
				{
					"internalType": "uint8[]",
					"name": "proofPathIndices",
					"type": "uint8[]"
				}
			],
			"name": "removeMember",
			"outputs": [],
			"stateMutability": "nonpayable",
			"type": "function"
		},
		{
			"inputs": [
				{
					"internalType": "uint256",
					"name": "groupId",
					"type": "uint256"
				},
				{
					"internalType": "address",
					"name": "newAdmin",
					"type": "address"
				}
			],
			"name": "updateGroupAdmin",
			"outputs": [],
			"stateMutability": "nonpayable",
			"type": "function"
		},
		{
			"inputs": [
				{
					"internalType": "uint256",
					"name": "groupId",
					"type": "uint256"
				},
				{
					"internalType": "uint256",
					"name": "newMerkleTreeDuration",
					"type": "uint256"
				}
			],
			"name": "updateGroupMerkleTreeDuration",
			"outputs": [],
			"stateMutability": "nonpayable",
			"type": "function"
		},
		{
			"inputs": [
				{
					"internalType": "uint256",
					"name": "groupId",
					"type": "uint256"
				},
				{
					"internalType": "uint256",
					"name": "identityCommitment",
					"type": "uint256"
				},
				{
					"internalType": "uint256",
					"name": "newIdentityCommitment",
					"type": "uint256"
				},
				{
					"internalType": "uint256[]",
					"name": "proofSiblings",
					"type": "uint256[]"
				},
				{
					"internalType": "uint8[]",
					"name": "proofPathIndices",
					"type": "uint8[]"
				}
			],
			"name": "updateMember",
			"outputs": [],
			"stateMutability": "nonpayable",
			"type": "function"
		},
		{
			"inputs": [],
			"name": "verifier",
			"outputs": [
				{
					"internalType": "contract ISemaphoreVerifier",
					"name": "",
					"type": "address"
				}
			],
			"stateMutability": "view",
			"type": "function"
		},
		{
			"inputs": [
				{
					"internalType": "uint256",
					"name": "groupId",
					"type": "uint256"
				},
				{
					"internalType": "uint256",
					"name": "merkleTreeRoot",
					"type": "uint256"
				},
				{
					"internalType": "uint256",
					"name": "signal",
					"type": "uint256"
				},
				{
					"internalType": "uint256",
					"name": "nullifierHash",
					"type": "uint256"
				},
				{
					"internalType": "uint256",
					"name": "externalNullifier",
					"type": "uint256"
				},
				{
					"internalType": "uint256[8]",
					"name": "proof",
					"type": "uint256[8]"
				}
			],
			"name": "verifyProof",
			"outputs": [],
			"stateMutability": "nonpayable",
			"type": "function"
		}
	]
}